{
  "contractName": "Voting",
  "abi": [
    {
      "constant": true,
      "inputs": [
        {
          "name": "",
          "type": "bytes32"
        }
      ],
      "name": "votesReceived",
      "outputs": [
        {
          "name": "",
          "type": "uint8"
        }
      ],
      "payable": false,
      "stateMutability": "view",
      "type": "function"
    },
    {
      "constant": true,
      "inputs": [
        {
          "name": "",
          "type": "uint256"
        }
      ],
      "name": "candidateList",
      "outputs": [
        {
          "name": "",
          "type": "bytes32"
        }
      ],
      "payable": false,
      "stateMutability": "view",
      "type": "function"
    },
    {
      "inputs": [
        {
          "name": "candidateNames",
          "type": "bytes32[]"
        }
      ],
      "payable": false,
      "stateMutability": "nonpayable",
      "type": "constructor"
    },
    {
      "constant": true,
      "inputs": [
        {
          "name": "candidate",
          "type": "bytes32"
        }
      ],
      "name": "totalVotesFor",
      "outputs": [
        {
          "name": "",
          "type": "uint8"
        }
      ],
      "payable": false,
      "stateMutability": "view",
      "type": "function"
    },
    {
      "constant": false,
      "inputs": [
        {
          "name": "candidate",
          "type": "bytes32"
        }
      ],
      "name": "voteForCandidate",
      "outputs": [
        {
          "name": "",
          "type": "uint8"
        }
      ],
      "payable": false,
      "stateMutability": "nonpayable",
      "type": "function"
    },
    {
      "constant": true,
      "inputs": [
        {
          "name": "candidate",
          "type": "bytes32"
        }
      ],
      "name": "validateCandidate",
      "outputs": [
        {
          "name": "",
          "type": "bool"
        }
      ],
      "payable": false,
      "stateMutability": "view",
      "type": "function"
    }
  ],
  "bytecode": "0x6060604052341561000f57600080fd5b6040516103f93803806103f9833981016040528080518201919050508060019080519060200190610041929190610048565b50506100c0565b82805482825590600052602060002090810192821561008a579160200282015b82811115610089578251829060001916905591602001919060010190610068565b5b509050610097919061009b565b5090565b6100bd91905b808211156100b95760008160009055506001016100a1565b5090565b90565b61032a806100cf6000396000f30060606040526004361061006d576000357c0100000000000000000000000000000000000000000000000000000000900463ffffffff1680632a0678b0146100725780632f265cf7146100b15780637021939f146100f2578063b13c744b14610133578063cc9ab26714610172575b600080fd5b341561007d57600080fd5b6100976004808035600019169060200190919050506101b3565b604051808215151515815260200191505060405180910390f35b34156100bc57600080fd5b6100d6600480803560001916906020019091905050610213565b604051808260ff1660ff16815260200191505060405180910390f35b34156100fd57600080fd5b610117600480803560001916906020019091905050610258565b604051808260ff1660ff16815260200191505060405180910390f35b341561013e57600080fd5b6101546004808035906020019091905050610278565b60405180826000191660001916815260200191505060405180910390f35b341561017d57600080fd5b61019760048080356000191690602001909190505061029c565b604051808260ff1660ff16815260200191505060405180910390f35b600080600090505b6001805490508110156102085782600019166001828154811015156101dc57fe5b9060005260206000209001546000191614156101fb576001915061020d565b80806001019150506101bb565b600091505b50919050565b600061021e826101b3565b151561022957600080fd5b600080836000191660001916815260200190815260200160002060009054906101000a900460ff169050919050565b60006020528060005260406000206000915054906101000a900460ff1681565b60018181548110151561028757fe5b90600052602060002090016000915090505481565b60006102a7826101b3565b15156102b257600080fd5b6001600080846000191660001916815260200190815260200160002060008282829054906101000a900460ff160192506101000a81548160ff021916908360ff160217905590509190505600a165627a7a72305820cfbb59e695312ec0c2ea32ad1ea9e2915be88cf2a03fae1f4dfc9e5f9f1e7e400029",
  "source": "pragma solidity ^0.4.17;\r\n\r\ncontract Voting {\r\n    //the key of this mapping is the candidate name stored as bytes32 type\r\n    //\r\n    mapping (bytes32=> uint8) public votesReceived;\r\n\r\n    //this stores an arry of candidates bytes32\r\n    bytes32[] public candidateList;\r\n\r\n    /*this contructor will be called once when the contract is \r\n    deployed to the blockchain. It will pass an array of candidates\r\n    contesting in the election once deployed*/\r\n    function Voting(bytes32[] candidateNames) public {\r\n        candidateList = candidateNames;\r\n    }\r\n\r\n    //this function returns totalvotes that a candidate has received so far.\r\n    function totalVotesFor(bytes32 candidate) view public returns (uint8) {\r\n        require(validateCandidate(candidate));\r\n        return votesReceived[candidate];\r\n    }\r\n    //this function increments the vote count for each candidate, more like\r\n    //the main votes function\r\n    function voteForCandidate(bytes32 candidate) public returns (uint8) {\r\n        require(validateCandidate(candidate));\r\n        return votesReceived[candidate] += 1;\r\n    }\r\n    //function to validate the authenticity of the candidate\r\n    function validateCandidate(bytes32 candidate) view public returns (bool) {\r\n        for(uint i = 0; i < candidateList.length; i++) {\r\n            if (candidateList[i] == candidate) {\r\n                return true;\r\n            }\r\n        }\r\n        return false;\r\n    }\r\n}",
  "sourcePath": "C:\\xampp\\htdocs\\BlockchainDev\\Voting-dApp\\contracts\\Voting.sol",
  "compiler": {
    "name": "solc",
    "version": "0.4.19+commit.c4cbbb05.Emscripten.clang"
  },
  "schemaVersion": "2.0.0",
  "updatedAt": "2018-03-28T22:41:03.820Z"
}